:1000000010C02AC08CC428C027C026C025C024C068
:10001000A1C222C021C05EC01FC01EC01DC01CC026
:100020001BC011241FBECFE5D2E0DEBFCDBF11E063
:10003000A0E6B0E0E6EDF4E102C005900D92A23832
:10004000B107D9F721E0A2E8B1E001C01D92A63BBB
:10005000B207E1F7F1D83DCAD3CF80918C019091DE
:100060008D0197FF0BC081E080938E0160918C0120
:1000700070918D0171956195710906C010928E0184
:1000800060918C0170918D016115710539F48FEFCC
:100090009FEF9093610080936000089588E799E650
:1000A000A4D97093610060936000089580918C01E1
:1000B00090918D01089590938D0180938C01CDDFF7
:1000C00060918C0170918D0180E090E0DCC980939B
:1000D0008B0108951F920F920FB60F9211242F9348
:1000E0003F938F939F93AF93BF9380918B0188230E
:1000F00029F01BBA88E08ABB8BBB1BBA80918F01A9
:100100009091900101969093900180938F0180913E
:100110008F0190919001019711F48FE186BF20919A
:100120008F013091900180916000909161002817BB
:10013000390760F080918E01882311F08EE101C0B3
:1001400080E286BF1092900110928F01809187010A
:100150008F5F80938701809187018C3300F18091BC
:1001600088018F5F809388011092870180918801B8
:100170008C33A8F08091890190918A010196909327
:100180008A01809389011092880180918901909160
:100190008A01489720F010928A011092890180917B
:1001A000830190918401A0918501B091860101960F
:1001B000A11DB11D8093830190938401A0938501BB
:1001C000B0938601BF91AF919F918F913F912F91F5
:1001D0000F900FBE0F901F90189580E090E04ED9C1
:1001E00090938D0180938C0180918C0190918D0171
:1001F000883E934024F010928D0110928C018091E2
:100200008C0190918D0189319C4F24F410928D01C5
:1002100010928C0122DF19BE8FE186BF1CBE83E0E5
:1002200080BF8DE083BF12BE87E088BF81E089BFB9
:100230000895CF92DF92EF92FF92F894C0908301DD
:10024000D0908401E0908501F09086018C2D35E0FE
:10025000315060F022B748B7417052B798B72513B4
:1002600003C09170491711F0942FF2CF78943F3F5B
:10027000A1F0992329F081E0809382018C0D02C0C6
:100280001092820190E035E0880F991F3A95E1F7CE
:10029000203208F02FE1822B02C080E090E0FF9036
:1002A000EF90DF90CF9008954091830150918401A9
:1002B000609185017091860122B735E0440F551F8A
:1002C0003A95E1F72F71422B8423952308950F93DC
:1002D0001F93CF93DF93EC01ACDF8C0185E0D695C3
:1002E000C7958A95E1F7A5DF801B910B8C179D07B9
:1002F000D0F3DF91CF911F910F910895CF93DF93AA
:1003000000D000D0CDB7DEB794DF6C012091820120
:1003100029838FDF9C838B83309182013A8389DF2D
:100320008C013090820185DF7C01C8012B813C81EA
:10033000821B930B8134910538F32090820120E1D8
:1003400037E2C601B90151D83B018B819C81B901CB
:100350004CD84B01C801B90148D85B01C701B901AC
:1003600044D82B018BE391E081D13981332319F0FB
:100370006FE683E073D184EF91E0A9DFC301D6D1AA
:1003800084EF91E0A4DFC6018AD184EF91E09FDF82
:1003900080E491E06BD18A81882319F06FE683E0D5
:1003A0005DD184EF91E093DFC401C0D184EF91E08F
:1003B0008EDF8B819C8173D184EF91E088DF85E4AF
:1003C00091E054D1332019F06FE683E047D184EFF8
:1003D00091E07DDFC501AAD184EF91E078DFC8010B
:1003E0005ED184EF91E073DF8AE491E03FD1222077
:1003F00019F06FE683E032D184EF91E068DFC2014B
:1004000095D184EF91E063DFC70149D184EF91E09A
:100410005EDFA8CFCF93DF93EC010BDF9983888356
:10042000DF91CF9108950F931F93CF938C01C62F27
:1004300000DFF80120813181821B930B9C016C2F1E
:1004400070E085E0660F771F8A95E1F781E062171B
:10045000730708F080E0CF911F910F910895CF931B
:10046000DF93E82FF0E0DF01A659BF4FC1E0D0E0F5
:100470009E010C9002C0220F331F0A94E2F7D901AB
:10048000A90140955095462357232F61A623B723F2
:10049000AB2B59F0DF01AA59BF4F0C9002C0CC0F13
:1004A000DD1F0A94E2F72C2B3D2BB9016095709566
:1004B00064237523672B61F0EE59FF4F61E070E014
:1004C000008002C0660F771F0A94E2F7262B372BB5
:1004D00081110AC0F8944093AE015093A401209377
:1004E000A7013093AC0123C0813051F4F8944093BC
:1004F000AB015093AA012093B1013093A60117C01C
:10050000823051F4F8944093B0015093AD012093A0
:10051000AF013093B2010BC0833051F4F894409393
:10052000A5015093B3012093A8013093A9017894B9
:10053000DF91CF91089590E08038910544F4880FC1
:10054000991FFC01E25DFF4F80819181089580E059
:1005500090E008951F920F920FB60F9211248F937F
:100560001ABA17BA1BBA89B38093910189B38093E1
:10057000910189B3809391018091920181110CC006
:100580008091AE018BBB8091A40188BB8091A701B3
:100590008ABB8091AC0129C0813061F48091AB01AC
:1005A0008BBB8091AA0188BB8091B1018ABB8091ED
:1005B000A6011BC0823061F48091B0018BBB809199
:1005C000AD0188BB8091AF018ABB8091B2010DC0A3
:1005D000833061F48091A5018BBB8091B30188BB0E
:1005E0008091A8018ABB8091A90187BB809192016B
:1005F0008F5F8370809392018F910F900FBE0F9049
:100600001F9018951CB81BBC81E08ABD19BC18BC92
:1006100093E09FBD9BE19EBD1DBC1CBC97E09BB9B8
:100620008CB90895843008F41ACF089560E070E022
:1006300080E015DF60E070E081E011DF60E070E0F5
:1006400082E00DDF60E070E083E009CF1CB81FBCE2
:100650001EBC1DBC1CBC87E08BB9E8CFCF93C82F54
:10066000862F69DFBC018C2FCF91DCCFCF93DF9336
:10067000EC01888160DFBC0180E0F1DE89815BDF15
:10068000BC0181E0ECDE8A8156DFBC0182E0E7DE5E
:100690008B8151DFBC0183E0DF91CF91E0CEEF92FF
:1006A000FF920F931F93CF93DF938C01CAE0D0E0AA
:1006B000BE019BD67B01FC01EE0FFF1FE257FF4FEF
:1006C0006081718183E0CBDEC701BE018ED6FC0163
:1006D000EE0FFF1FE257FF4F6081718182E0BFDEA6
:1006E000C80164E670E081D6CB01BE017ED6FC0174
:1006F000EE0FFF1FE257FF4F6081718181E0AFDE97
:10070000C80168EE73E071D6CB01BE016ED6FC0164
:10071000EE0FFF1FE257FF4F6081718180E0DF9194
:10072000CF911F910F91FF90EF9099CEEF92FF9292
:100730000F931F93CF93DF93EC010AE010E0B80111
:1007400054D67B01FC01EE0FFF1FE257FF4F608183
:10075000718183E084DEE114F10459F0C701B8012E
:1007600044D6FC01EE0FFF1FE257FF4F60817181FD
:1007700002C060E070E082E072DECE0164E670E00C
:1007800034D6CB01009759F06AE070E02ED6FC0118
:10079000EE0FFF1FE257FF4F6081718102C060E0E2
:1007A00070E081E05CDECE0168EE73E01ED6CB0126
:1007B000009759F06AE070E018D6FC01EE0FFF1FB9
:1007C000E257FF4F6081718102C060E070E080E01D
:1007D000DF91CF911F910F91FF90EF9040CECF927C
:1007E000DF92EF92FF920F931F93CF93DF938931A4
:1007F0002CEF92075CF48FE491E0DF91CF911F9191
:100800000F91FF90EF90DF90CF9030CF97FF05C012
:10081000EE24FF24E81AF90A01C07C01EC010AE089
:1008200010E0C701B801E1D56B01FC01EE0FFF1F1D
:10083000E257FF4F6081718183E011DEC601B8018C
:10084000D4D5FC01EE0FFF1FE257FF4F608171818D
:1008500082E005DEC70164E670E0C7D5CB01B801D0
:10086000C4D5FC01EE0FFF1FE257FF4F608171817D
:1008700081E0F5DDD7FF03C060E170E002C060E019
:1008800070E080E0DF91CF911F910F91FF90EF908A
:10089000DF90CF90E4CD0F931F93CF93DF93CAE007
:1008A000D0E0BE01A2D58B01FC01EE0FFF1FE25785
:1008B000FF4F6081718183E0D2DDC801BE0195D513
:1008C000FC01EE0FFF1FE257FF4F6081718182E054
:1008D000DF91CF911F910F91C2CD0F931F93CF93B3
:1008E000DF93CAE0D0E0BE0180D58B01FC01EE0FA2
:1008F000FF1FE257FF4F6081718181E0B0DDC801C9
:10090000BE0173D5FC01EE0FFF1FE257FF4F608160
:10091000718180E0DF91CF911F910F91A0CD1F9247
:100920000F920FB60F9211248F939F9381E090E066
:1009300090939701809396019F918F910F900FBE96
:100940000F901F901895CF93C0919101C170C093E3
:10095000B4016FDC9C014091B50141110AC0CC2368
:10096000D9F190939501809394011092930182E0C4
:1009700003C0CC23D9F080E0982F9160509193016F
:1009800051110FC06091940170919501F901E61B1E
:10099000F70BE134F10528F0982F916281E0809304
:1009A00093014423D1F0C11118C001C090E080919F
:1009B0009301882311F0946110C0409194015091EB
:1009C0009501241B350B225031092E31310510F0D1
:1009D000946003C09C6001C090E0C093B501892F72
:1009E000CF910895EF92FF921F93CF93DF937C01F5
:1009F000EB01142FA8DFF701808380FF02C0CE0136
:100A000009DD612FCE01DF91CF911F91FF90EF9013
:100A10000ACDCF93DF93EC0109DE64E070E080E063
:100A200001DECE010197F1F764E070E081E0FADDCC
:100A3000CE010197F1F764E070E082E0F3DDCE01D2
:100A40000197F1F764E070E083E0ECDDCE010197FF
:100A5000F1F765E070E083E0E5DDCE010197F1F7A5
:100A600065E474E083E0DEDDCE010197F1F76DE42B
:100A700074E083E0D7DDCE010197F1F76CE070E020
:100A800082E0D0DDCE010197F1F76CE070E081E00B
:100A9000C9DDCE010197F1F76CE070E080E0C2DDC6
:100AA000CE010197F1F76CEA70E080E0BBDDCE018A
:100AB0000197F1F76EEA70E080E0B4DDCE010197B6
:100AC000F1F76AEA70E080E0ADDDCE010197F1F761
:100AD00068E070E081E0A6DDCE010197F1F768E003
:100AE00070E082E09FDDCE010197F1F769E474E0E8
:100AF00083E098DDCE010197F1F768E474E083E0CC
:100B000091DDCE010197F1F768E070E083E08ADDC6
:100B1000CE010197F1F760E070E083E083DDCE0164
:100B20000197F1F760E070E082E07CDDCE01019793
:100B3000F1F760E070E081E075DDCE010197F1F73B
:100B400062EA70E080E06EDDCE010197F1F762E0CD
:100B500070E080E067DDCE010197F1F760E070E0C2
:100B600080E060DD2197F1F7DF91CF910895CF9379
:100B7000DF93EC015BDD64E070E080E053DDCE01EB
:100B80000197F1F760E070E080E04CDD64E070E038
:100B900081E048DDCE010197F1F760E070E081E08F
:100BA00041DD64E070E082E03DDDCE010197F1F7C8
:100BB00060E070E082E036DD64E070E083E032DD2A
:100BC000CE010197F1F761E070E083E02BDDCE010B
:100BD0000197F1F760E474E083E024DDCE01019732
:100BE000F1F768E070E083E01DDDCE010197F1F7D9
:100BF00060E070E083E016DD68E070E082E012DD26
:100C0000CE010197F1F760E070E082E00BDD68E073
:100C100070E081E007DDCE010197F1F760E070E060
:100C200081E000DD68E070E080E0FCDCCE0101974F
:100C3000F1F760EA70E080E0F5DCCE010197F1F7B2
:100C400062E070E080E0EEDCCE010197F1F760E059
:100C500070E080E0E7DC2197F1F7DF91CF91089514
:100C6000EF92FF920F931F93CF93DF93CDB7DEB731
:100C700028970FB6F894DEBF0FBECDBF9C01E62FBC
:100C8000643008F055C097FF06C0319521953109B1
:100C90000FEF1FEF02C001E010E08AE0E82EF12C18
:100CA000C901B701B6D39A838983CB01B701B1D308
:100CB0009C838B83C90164E670E0ABD3CB01B701A1
:100CC000A8D39E838D83C90168EE73E0A2D3CB01C4
:100CD000B7019FD398878F83F0E0EE0FFF1F81E06D
:100CE00090E08C0F9D1FE80FF91F80819181840F88
:100CF000911D47FD9A95B7018CD3918380838B8199
:100D00009C816AE070E047D329813A81280F391F1E
:100D10008D819E8164E670E03ED3280F391F8F815C
:100D2000988568EE73E037D3820F931FB80133D3F1
:100D300028960FB6F894DEBF0FBECDBFDF91CF91DE
:100D40001F910F91FF90EF900895DF92EF92FF9225
:100D50000F931F93CF93DF9300D01F92CDB7DEB7D1
:100D6000CE01019657DBF8948091890190918A0118
:100D7000182F009188017894D12C8CE3E82EF12C67
:100D800048E7BE016F5F7F4FCE0103962BDE8111D6
:100D900052C08B81D1103AC083FF06C0802F90E0F3
:100DA0000196B70136D3082F812F90E096DD88E1B8
:100DB00090E07ADA892B21F0802F90E06CDD10C072
:100DC00060E070E082E02EDC60E070E083E007C06D
:100DD00060E070E080E026DC60E070E081E022DC32
:100DE0008B8185FFCDCF81E0D81619F0DD24D39417
:100DF000C7CFF894212F30E030938A0120938901E6
:100E00000093880110928701789415C083FF07C072
:100E1000812F90E0019668E170E0FBD2182F802FBF
:100E200090E039DD88E190E03FDA892B89F2812F6B
:100E300090E053DDD5CF0F900F900F90DF91CF91C1
:100E40001F910F91FF90EF90DF900895EF92FF9226
:100E50000F931F93CF93DF9300D01F92CDB7DEB7D0
:100E6000CE010196D7DA22D9883E23E0920714F00A
:100E700087EE93E08C0109318CEF180714F409E137
:100E80001CEFF12C83E0E82E48E7BE016F5F7F4F37
:100E9000CE010396A7DD81112CC08B8183FF10C08A
:100EA0008FEF8F0D833038F441E06E2D6F19C8013C
:100EB000D7DE8C0105C0F11003C011950195110911
:100EC0008CE190E0F1D9892B19F0C80188DC03C0CE
:100ED0006FE58F2DC3DB8B8185FDF39423E02F1508
:100EE00098F6C801E8D884E591E0C0DB80ED97E092
:100EF000EED90F900F900F90DF91CF911F910F912E
:100F0000FF90EF900895CF93DF9300D01F92CDB75D
:100F1000DEB7CE0101967EDA48E7BE016F5F7F4FF4
:100F2000CE0103965FDD81114CC08B8183FF26C00B
:100F3000F894809187018F31F0F0809188018F5F64
:100F400080938801809188018C33A8F08091890179
:100F500090918A01019690938A0180938901109261
:100F600088018091890190918A01489720F0109220
:100F70008A01109289011092870178948CE190E0A7
:100F800093D9892B49F08091880190E0A6DC80916B
:100F9000870190E080DC0CC060E070E082E042DB22
:100FA00060E070E083E03EDB8091880190E095DCBA
:100FB0008B8185FFB1CF89E591E058DB80ED97E02B
:100FC00086D90F900F900F90DF91CF910895EF92F7
:100FD000FF921F93CF93DF9300D01F92CDB7DEB760
:100FE0008EE591E043DB80ED97E071D9CE0101966B
:100FF00011DA10E085E0E82EF12C44E1BE016F5FCC
:101000007F4FCE010396EEDC81116EC011111DC021
:1010100080E190E049D9892B21F083E691E026DB3D
:101020000CC08091890190918A012091880164E629
:1010300070E0B1D1820F911D32DB8B8185FF45C0FD
:1010400084DECE010196E6D94FC01130B1F480E1C3
:1010500090E02AD9892B21F081E391E007DB08C0D9
:101060008091880190E039DC8091870190E013DC69
:101070008B8185FF47C047DF11C0123099F480E1B2
:1010800090E012D9892B21F088E691E0EFDA02C0D6
:101090000DD8A5DB8B8185FF35C0D8DECE0101964A
:1010A000B9D913C0133089F481E011D8CE0101966B
:1010B000B1D980E190E0F8D8892B19F08DE691E064
:1010C00002C082E791E0D2DA1FC080E000D814307D
:1010D000D9F480E190E0E8D8892B89F087E791E0A6
:1010E000C5DA8B8185FF10C080E0F1D70F900F909B
:1010F0000F90DF91CF911F91FF90EF9008958CE7B3
:1011000091E0EECF80E0E3D78B8183FF76CF812F14
:1011100090E00196B7017DD1182F6FCF84B125B132
:1011200030E0322F222722273370A901330F660BBC
:10113000770B9A01AB01282B21153105410551058B
:1011400069F060E070E381E190E076D1211531052E
:1011500081E04807510528F4C901089580E090E036
:1011600008958FEF9FEF0895009813B880EE86B929
:1011700081E287B91092A0011092A1011092A20100
:101180001092A301089516B8009A0895CF92DF92A5
:10119000EF92FF92CF93DF93C090A001D090A10176
:1011A000E090A201F090A301C11484EFD80681E081
:1011B000E806F10458F4B2DFA0E0B0E047E0880FA1
:1011C000991FAA1FBB1F4A95D1F716C0A7DFEC01D4
:1011D0002FE730E040E050E0C701B601EDD0DC0180
:1011E000CB0137E0B695A795979587953A95D1F7B6
:1011F0008C0F9D1FA11DB11D8093A0019093A10193
:10120000A093A201B093A3018091A0019091A101AC
:10121000A091A201B091A301BC01CD0127E0969558
:101220008795779567952A95D1F7DF91CF91FF90B4
:10123000EF90DF90CF900895CF93DF9300D000D050
:101240001F92CDB7DEB783E080B9479AC6D78CE24C
:1012500091E00CDAD7D9789487DFCE010396DAD8FB
:1012600010E083E0E82EF12C111116C08091890165
:1012700090918A0132DB8091880190E00CDB62E082
:10128000CE010196D0D88823B9F084E690E06FDCD7
:10129000CE010196BFD810C0113049F4809187016A
:1012A00090E0F9DA8091880190E017DB05C01230F8
:1012B00019F46CDFCB013ADA48E7BE016D5F7F4F6E
:1012C000CE0105968FDB882309F43BC05CDF84E602
:1012D00090E09FDBF894BAD91ABA17BA1BBA909A61
:1012E0008BB780618BBF8AB780618ABF8AB7806104
:1012F0008ABF8AB780618ABF8AB780618ABF8AB78E
:1013000080618ABF10929701109296017894809123
:10131000960190919701892B41F485B7877E85BF0F
:1013200085B7806285BF8895F2CF8BB78F7E8BBFE4
:1013300069D98EE190E06DDB17DFCE0103966AD8A4
:1013400010E08D8185FF02C042DE10E06EE1CE012B
:10135000039669D8811110E08D8183FF85CF812F9D
:1013600090E00196B70155D0182F8130910549F0D2
:10137000029751F082E390E0FADBCE0101964AD861
:1013800006C081E391E002C086E391E06FD988EC6A
:1013900090E09DD769CF0024552704C0080E591F3F
:1013A000880F991F009729F076956795B8F3710516
:1013B000B9F7802D952F0895EE27FF27AA27BB2781
:1013C00008C0A20FB31FE41FF51F220F331F441FD5
:1013D000551F969587957795679598F37040A9F76F
:1013E000009799F7BD01CF010895AA1BBB1B51E1DE
:1013F00007C0AA1FBB1FA617B70710F0A61BB70B85
:10140000881F991F5A95A9F780959095BC01CD0129
:10141000089597FB072E16F4009406D077FD08D0A8
:10142000E4DF07FC05D03EF4909581959F4F089529
:10143000709561957F4F0895A1E21A2EAA1BBB1BE0
:10144000FD010DC0AA1FBB1FEE1FFF1FA217B30790
:10145000E407F50720F0A21BB30BE40BF50B661FA6
:10146000771F881F991F1A9469F76095709580956A
:1014700090959B01AC01BD01CF010895A8E1B0E0BA
:1014800042E050E006C00196272F12D010C0DC01C8
:10149000CB01FC01E199FECF06C0FFBBEEBBE09A99
:1014A00031960DB20D9241505040B8F70895262F55
:1014B000E199FECF9FBB8EBBE09A01970DB2021659
:1014C00039F01CBA2DBB0FB6F894E29AE19A0FBE20
:0614D0000895F894FFCF1F
:1014D600FFFF05060A070A0705060605070A0000B4
:1014E6000900030017005E045E04F60401005104BF
:1014F6004D041400B200480410000800B100EF04C7
:101506004104BD005D0453045E04FE044504FF046B
:101516005F0442044A04B800180058040D00FD0494
:10152600F704FA04AE00F904BE00B600EE04F304B4
:10153600A200E904F304AA00E704E704EF04B700F5
:101546005704B0005E04A600EB04EB04FB04F304AE
:10155600B300BD00AE0052044D04070008000200AF
:10156600F704FA04B800F904BF00B6005F04F204F9
:10157600A0001600F304A800F004F004F80401002B
:101586005704B0005E04BA00E804E804E804F30473
:101596005B0418005104A200B200110076312E300F
:1015A600005345432000424174200074312020003E
:1015B6007432202000743320200074342020002D43
:1015C600455252005341564500646F6E6500434FC5
:1015D6004E4600534574200043414C49005020209C
:1015E60020002020202000456E642000456E645FA8
:0215F6000000F3
:00000001FF
